20250103-11:54:52.000000000 : 8=FIX.4.3|9=73|35=A|34=1|49=CLIENT|52=20250103-11:54:52.000|56=SERVER|98=0|108=30|141=Y|10=177|
20250104-16:01:31.959198000 : 8=FIX.4.3|9=73|35=A|34=1|49=CLIENT|52=20250104-16:01:31.956|56=SERVER|98=0|108=30|141=Y|10=192|
20250104-16:02:10.350101000 : 8=FIX.4.3|9=73|35=A|34=1|49=CLIENT|52=20250104-16:02:10.347|56=SERVER|98=0|108=30|141=Y|10=184|
20250104-16:02:45.849960000 : 8=FIX.4.3|9=73|35=A|34=1|49=CLIENT|52=20250104-16:02:45.846|56=SERVER|98=0|108=30|141=Y|10=196|
20250104-16:03:32.436941000 : 8=FIX.4.3|9=73|35=A|34=1|49=CLIENT|52=20250104-16:03:32.435|56=SERVER|98=0|108=30|141=Y|10=187|
20250104-16:04:32.099848000 : 8=FIX.4.3|9=73|35=A|34=1|49=CLIENT|52=20250104-16:04:32.086|56=SERVER|98=0|108=30|141=Y|10=190|
20250104-16:05:32.682133000 : 8=FIX.4.3|9=73|35=A|34=1|49=CLIENT|52=20250104-16:05:32.669|56=SERVER|98=0|108=30|141=Y|10=198|
20250104-16:06:32.379630000 : 8=FIX.4.3|9=73|35=A|34=1|49=CLIENT|52=20250104-16:06:32.372|56=SERVER|98=0|108=30|141=Y|10=190|
20250104-16:07:32.315080000 : 8=FIX.4.3|9=73|35=A|34=1|49=CLIENT|52=20250104-16:07:32.280|56=SERVER|98=0|108=30|141=Y|10=189|
20250104-16:08:32.588743000 : 8=FIX.4.3|9=73|35=A|34=1|49=CLIENT|52=20250104-16:08:32.563|56=SERVER|98=0|108=30|141=Y|10=194|
