20250104-16:09:45.910111000 : 8=FIX.4.2|9=73|35=A|34=1|49=CLIENT|52=20250104-16:09:45.906|56=SERVER|98=0|108=30|141=Y|10=199|
20250104-16:09:45.954381000 : 8=FIX.4.2|9=73|35=A|34=1|49=SERVER|52=20250104-16:09:45.000|56=CLIENT|98=0|108=30|141=Y|10=184|
20250104-16:09:45.955248000 : 8=FIX.4.2|9=80|35=5|34=2|49=CLIENT|52=20250104-16:09:45.954|56=SERVER|58=Incorrect BeginString|10=071|
20250104-16:09:47.991495000 : 8=FIX.4.2|9=523|35=8|34=2|49=SERVER|52=20250104-16:09:47.000|56=CLIENT|116=ppatel@fxcm.com|1=TNL00234895|6=133.17|11=00001|17=00002|20=0|29=4|31=1.23|32=-25000|37=NOT PROVIDED|54=1|55=USD/JPY|60=20250104-16:09:47.983|75=20250104|150=0|453=3|448=MTRX|452=1|448=TNL00234895|452=3|448=FXCMUSMTRX|452=9|555=1|600=USD/JPY|608=MRCSXX|624=1|556=USD|566=133.17|687=-25000|11430=3329250|654=11|587=0|588=20250104|670=1|671=059L418D2|672=11a1|11438=1|673=-25000|11436=3329250|1367=USD|7211=NY#gulUnIr2T_WniQ1HhSPxPgA_1|10910=OD7jMWi7Rrevi5v3ulr-vgA|10=243|
20250104-16:09:47.994382000 : 8=FIX.4.2|9=80|35=5|34=3|49=CLIENT|52=20250104-16:09:47.992|56=SERVER|58=Incorrect BeginString|10=076|
20250104-16:09:47.995332000 : 8=FIX.4.2|9=55|35=5|34=3|49=SERVER|52=20250104-16:09:47.000|56=CLIENT|10=106|
