2025-01-04 16:09:45,906 : (Admin) S >> 8=FIX.4.2|9=73|35=A|34=1|49=CLIENT|52=20250104-16:09:45.906|56=SERVER|98=0|108=30|141=Y|10=199|
2025-01-04 16:09:45,954 : (Admin) S >> 8=FIX.4.2|9=80|35=5|34=2|49=CLIENT|52=20250104-16:09:45.954|56=SERVER|58=Incorrect BeginString|10=071|
2025-01-04 16:09:47,993 : (Admin) S >> 8=FIX.4.2|9=80|35=5|34=3|49=CLIENT|52=20250104-16:09:47.992|56=SERVER|58=Incorrect BeginString|10=076|
2025-01-04 16:09:47,996 : (Admin) R << 8=FIX.4.2|9=55|35=5|34=3|49=SERVER|52=20250104-16:09:47.000|56=CLIENT|10=106|
2025-01-04 16:09:48,014 : (Admin) S >> 8=FIX.4.2|9=73|35=A|34=1|49=CLIENT|52=20250104-16:09:48.014|56=SERVER|98=0|108=30|141=Y|10=192|
